:020000040000fa
:080000000002040000000000f2
:020000040000fa
:10000800d2020000d2020000d2020000d202000098
:10001800d2020000d2020000d2020000d202000088
:10002800d2020000d2020000d2020000d202000078
:10003800d2020000d2020000d2020000b63700004f
:10004800d2020000d2020000d2020000ce2a000034
:10005800742a0000d2020000d2020000d20200007e
:10006800d2020000d2020000d2020000d202000038
:10007800d2020000d2020000d2020000d202000028
:10008800d2020000d2020000d2020000d202000018
:10009800d2020000d2020000d42e00007a2e000006
:1000a800d2020000d2020000d2020000d2020000f8
:1000b800d2020000d2020000d2020000d2020000e8
:1000c800d2020000d2020000d2020000d2020000d8
:1000d800d2020000d2020000d2020000d2020000c8
:1000e800d2020000d2020000d2020000d2020000b8
:1000f800d2020000d2020000d2020000d2020000a8
:10010800d2020000d2020000d2020000d202000097
:10011800d2020000d2020000d2020000d202000087
:10012800d2020000462b00004c2f0000d202000033
:10013800d2020000d2020000d2020000d202000067
:10014800d2020000d2020000d2020000d202000057
:10015800d2020000d2020000d2020000d202000047
:10016800d2020000d2020000d2020000d202000037
:10017800d2020000d2020000d2020000d202000027
:10018800d2020000d2020000d2020000d202000017
:10019800d2020000d2020000d2020000d202000007
:1001a800d2020000d2020000d2020000d2020000f7
:1001b800d2020000d2020000d2020000d2020000e7
:1001c800d20200007a370000d2020000d2020000fa
:1001d800d2020000d2020000d2020000d2020000c7
:1001e800d2020000d2020000d2020000d2020000b7
:0801f800d2020000d202000057
:020000040000fa
:10020800d2020000d2020000d2020000d202000096
:10021800d2020000d2020000d2020000d202000086
:10022800d2020000d2020000d2020000d202000076
:10023800d2020000d2020000d2020000b63700004d
:10024800d2020000d2020000d2020000ce2a000032
:10025800742a0000d2020000d2020000d20200007c
:10026800d2020000d2020000d2020000d202000036
:10027800d2020000d2020000d2020000d202000026
:10028800d2020000d2020000d2020000d202000016
:10029800d2020000d2020000d42e00007a2e000004
:1002a800d2020000d2020000d2020000d2020000f6
:1002b800d2020000d2020000d2020000d2020000e6
:1002c800d2020000d2020000d2020000d2020000d6
:1002d800d2020000d2020000d2020000d2020000c6
:1002e800d2020000d2020000d2020000d2020000b6
:1002f800d2020000d2020000d2020000d2020000a6
:10030800d2020000d2020000d2020000d202000095
:10031800d2020000d2020000d2020000d202000085
:10032800d2020000462b00004c2f0000d202000031
:10033800d2020000d2020000d2020000d202000065
:10034800d2020000d2020000d2020000d202000055
:10035800d2020000d2020000d2020000d202000045
:10036800d2020000d2020000d2020000d202000035
:10037800d2020000d2020000d2020000d202000025
:10038800d2020000d2020000d2020000d202000015
:10039800d2020000d2020000d2020000d202000005
:1003a800d2020000d2020000d2020000d2020000f5
:1003b800d2020000d2020000d2020000d2020000e5
:1003c800d20200007a370000d2020000d2020000f8
:1003d800d2020000d2020000d2020000d2020000c5
:1003e800d2020000d2020000d2020000d2020000b5
:0803f800d2020000d202000055
:020000040000fa
:10040000efd920000e7f22000e01880000000000be
:10041000000020000000e000020032000001200087
:10042000200288000c000700a03f230001002000ec
:100430000f000700000020000000e0000200320072
:100440000000020000000000282a02000000000056
:100450000040da000000fe00200320000000e00061
:1004600002003200002020009001880000000600f9
:10047000a1028800800078000000eb001a0037001d
:10048000e280400054a0b4009101ba00e280400034
:1004900054a0b4009102ba00e280400054a0b4001d
:1004a0000002eb00472bde00f507b200a601880032
:1004b000602ce10008003a000049eb000201e8006e
:1004c000020039003420ec0002f0a0008301e900b2
:1004d000f9ff3e00040037006128e100010032000e
:1004e0000082eb00040007001101ba000200e000e6
:1004f000e3ff3a000000060004d0a300e20f490029
:100500001c003900810278003549ba000201e80078
:10051000020039003420ec0002f0a0008301e90061
:100520000f0032002549ba000201e800020039003c
:100530003420ec0002f0a0008301e9000800320042
:100540000400e0000600320015c9ba000201e8000c
:10055000020039003420ec0002f0a0008301e90021
:100560008180e80054a0b4000300e000e2ff3a00fc
:10057000000006009102ba00055978008301e900e5
:10058000f7ff3200c82ade00055978008301e90030
:10059000f3ff32000400e000f1ff320011d9ba008d
:1005a000eeff37000040da000000fe001004b1004a
:1005b000070035009001b100040034007000b10064
:1005c000030035009001b10001003c00100005005f
:1005d000000005006900e100040035006d00e10045
:1005e000030034000002b1000100320000000500e9
:1005f000100005001004b100030035009001b100a7
:1006000001003c001000050000000500800078009b
:100610001104b100030035009101b10001003c005c
:100620000050a000000006000a00fa00e00f500091
:1006300027003a00e45c8000e10f5200060032001f
:100640008723200066232000252320000423200088
:10065000e08f530004003a00872220006622200029
:100660002522200004222000000028001400600041
:1006700003003a00800b780007002800148a7300fa
:10068000020278000c0037008703e900950178002a
:100690006180610002003a00e08f5300faff3a00e7
:1006a00015007800e103600007003200960378002f
:1006b0000402e90087587800e00f5200020032007f
:1006c000070a2000f1ff370004005100080037003e
:1006d00024002000c0bf9f00b4bf9f006a80570065
:1006e000d1bf9f00e2bf9f001e0c07006fb89700ac
:1006f0000080fa00000006000a00fa00e20f500035
:1007000022003e00e45c8000e10f5200060032004f
:1007100087232000462320002423200005232000d7
:10072000e08f530004003a00872220004622200078
:10073000242220000522200000002800150060006f
:1007400003003a00800b780007002800958a7300a8
:10075000054020009482620001003a0014a0a0002d
:100760008202780006003700940378000710b20078
:10077000fdff3200b103fb00070b78008502e900a2
:10078000e08f5200f8ff3a000800370034002000e4
:10079000c0bf9f00e2bf9f00b4bf9f00d1bf9f00ba
:1007a0006a805700f10b07006fb9970002007800cc
:1007b0000080fa000000060003f0a200889fbe003f
:1007c0008a9fbe008c1f7800c6000700cd00330052
:1007d0006450e1004f0032006420e100520032001a
:1007e00003826c0007003b000905d0000306d0001f
:1007f000820f54000c065d00020039000200320036
:1008000089017800030678008582550004003d00c8
:100810000003fd008103fd008502ea008b85420094
:10082000840f720002003b0060001000e08018009e
:100830006011b8000005eb007a28e1000a003900d9
:1008400006007800c75ddd00f707b20087807500fd
:100850002d003700828171000a0178006105600077
:100860008180d1000080d3008502e900f9ff3b00c0
:10087000060440008784480002003b006004140026
:10088000e0841c000988a300070032008a817100ff
:1008900082817100610164008904d1000884d30061
:1008a0008b05e800170037000978a30013003a0011
:1008b0000b00e000130034008b05e900080444003d
:1008c00089844c000a4474000978a3000d003a00a2
:1008d0000b00e000070034008b05e9000804440029
:1008e00089844c0001003a000b0020000978a30025
:1008f000f7ff32000001eb00020037008281710037
:100900000a017800510007000cf0a70001f0a000d8
:10091000850037006420e10002003a00838f6c00fc
:10092000850033000801be000200be007e003700d3
:10093000889fbe008a9fbe008c1f78006900070058
:100940007000330003866c006450e1002e0032001a
:100950006420e100330032006150e1002f003200da
:100960006120e1003100320085855500eb07b000c1
:100970000900200008042000050037000804440096
:1009800089844c000a0031000603430087834b0032
:100990000001530081815b00f8ff33000203be00b9
:1009a0000800a0000804440089844c00f6ff3900c8
:1009b000c639dd00830173000100320013002000fe
:1009c0008904d1000884d3000998a30005003200ef
:1009d0000800a7000300a0008904d1000884d30008
:1009e0008b05e8008904d1000884d3000001eb00e6
:1009f0000281d2001500070001f0a1000cf0a70051
:100a000001f0a000480037006420e1004a003200f5
:100a10000801be000200be00f7ff37006120e100c0
:100a2000450032006000b800f3ff370000002000ee
:100a300001f82700f0ff3700140020007500370090
:100a40004f89de00820178008d0037008100200090
:100a5000618055000b003d000b00200061fe2f005f
:100a60000100e1001d003400828171006101640019
:100a70008904d1000884d3000000e800faff3a009e
:100a8000710020006100640003007000020060003b
:100a90000900320061044400e0844c000988a5008c
:100aa000050032008b05e8006808e10002003a000a
:100ab0008904d1000884d300f20f20000258e1001d
:100ac00005003d00c75ddd00f907b20089807500b3
:100ad00008007800000006000bf827008b00780063
:100ae000000005000004be00a40007000003be00d3
:100af0000405be000200be00a0000700844f750080
:100b0000000006000200be006450e100050036004f
:100b10006420e100020036000968a30001003a00e9
:100b20000800be000160a0004f0678004f05be001f
:100b30004f04be0000000600f0ff2f00f1ff270069
:100b4000f9ff3700889fbe008a9fbe008c1f780087
:100b5000e4ff0700ebff330003866c006450e10004
:100b6000240032006420e100270032006150e100df
:100b7000220032006120e100210032008b8542001a
:100b8000eb07b1000134b800003ab8000804420095
:100b900089844a00013ab8000030b80088804000db
:100ba00009014a0004003300000040008180480031
:100bb000020149008b05e900c909dd0083017000cd
:100bc0000100320013002000c814de004814dd00cc
:100bd0004709de001200b200c808de000884700079
:100be0009aff070001f0a1000cf0a70001f0a0009f
:100bf000cdff37006120e100cfff32000801be00c9
:100c00000200be00f7ff37006150e100fcff3a0030
:100c1000c9ff3700889fbe008a9fbe00841f7800ee
:100c2000b0ff07004f00780011003300f0ff2f00e5
:100c3000838f6c0006003b00040565000a00a700d6
:100c40000800370009f0a600100020000800370057
:100c5000820f5400838f5c000300390010002000d5
:100c600001003e000000200009f0a7000000ea009b
:100c70004f05be004f04be000000e000000006006b
:100c8000881f7800030478000300e00007003d009f
:100c900060001000e080180060011900e081190078
:100ca00002003b0001f02d000300370004000700a4
:100cb00008f0a70001f0a0004f0478000000060033
:100cc000889fbe008a9fbe000082700004027100ef
:100cd00004827100260032000004be000200be0043
:100ce0006011b8006b092000950220000182cf003e
:100cf0000a0039000541b1000082cf000700390029
:100d00000541b1000982cf00040039000541b1005e
:100d10000882cf00010039000541b10005425200b0
:100d2000120032000a003b00828171006101640000
:100d30008100d1000080d3008984d3000884d300cf
:100d40008b05e8000442e800f7ff3a00070037008f
:100d50000804440089844c00000048008180480059
:100d60008b05e9000442e900f9ff3a0037ff07006c
:100d70004f05be004f04be0000000600c70ade009b
:100d8000f107b200f50fb20008003200e1cf4200d7
:100d9000020032000170a00024000500810f7000e5
:100da000010032000408050044000500810f7000b6
:100db00002003a00140005008502e900000040002e
:100dc00081c04800fcff3b000170a000240005002a
:100dd0000002780084027800050278000043eb00ee
:100de000b44f1300fbff3a0031427800845a780078
:100df000e04f5200fcff3a000000060000027800bd
:100e00008042eb00b4cf1200fdff3a000080ea0000
:100e100000004200000006000c00fa00889fbe009f
:100e2000f4ff270000047800d4bf9f008004eb008b
:100e300088bf9f0099bf9f00a8bf9f00240c20007f
:100e400078815700b4bf9f00cfb0970070805700e3
:100e5000ba0207000fba9700094a78000fba970044
:100e6000080052004f04be000080fa000000060097
:100e70000c00fa00a0bf9f00c0bf9f00dfff07006b
:100e8000140c2000b0bf9f00f0bf9f00d4bf9f0094
:100e900074815700efb097006c8057003400070052
:100ea0000080fa0000000600881f7800805c800047
:100eb000dc0807000004780008007800c5fd070082
:100ec000e00f5000f9ff3a00e10f44000300320048
:100ed000815c800008007800970907004f047800c3
:100ee00000000600889fbe00000478008a1f78007a
:100ef000814478000205780004fd2f0008024200ba
:100f0000e90f520002003e00040478000f00370091
:100f100008007800b7fd0700e00f50000500320020
:100f2000e00f55000300320008007800b7fd07000d
:100f300000047800080078009cfd070000c2eb0068
:100f4000e00f5000060032007805b1008984fb00f4
:100f500000c2eb00890f540001003d0008427800f8
:100f60004f057800044078004f04be0000000600e2
:100f70000002eb00af04b000805c8800889fbe00d8
:100f8000844478008a9fbe00810578008c9fbe0053
:100f9000020578008e1f7800e4b79f009f0137009c
:100fa0000886fb008b05e8000c00780089fd07002f
:100fb000e00f500002003200bbff0700970137002e
:100fc00054c2b300844f540087013a0000447800b3
:100fd00025c0b30090f79f00884678000b0078008a
:100fe00005467800040037004cc0b300010037000c
:100ff0002cc0b3000b0078003b42780075c6b300ec
:10100000854f520020003e0085c2e900854f520006
:1010100035003100f9c25200854f52009b0032006a
:101020000e003e00e7c25200854f52002e003200f3
:1010300006003e00e04f52007a003200fbc2520030
:10104000854f5200d8003a002500370075c4b30020
:10105000854f5200d4003a002300370035c6b30054
:10106000854f5200bc003200e2003e00ebc252004d
:10107000854f5200cc003a009df79f008cf79f00ef
:101080001500200088003700f5c6b300854f5200d8
:10109000dd00320008003e00e6c25200854f5200db
:1010a000d4003200d2ff3900e3c24200854f520023
:1010b000bd003a007500370055c7b300854f520098
:1010c000cc003200e3c24200854f52007300320070
:1010d000e5c25200854f5200b3003a007500370058
:1010e0008d46e800c3ff37009df79f008cf79f00f7
:1010f0006dff0700e04f540001003a00b8c3b30091
:10110000805c800047080700d4022000840f500054
:1011100007003a00a06f9f000844e900805c80004f
:1011200040080700befa2f000f07470002003700f3
:10113000aefa2f000f0747000046eb00ed0220003b
:1011400007003700005f78008d0f500001003a0063
:101150000c46e8000844e900805c80003108070084
:10116000e04f54000400320004fd2f000002420052
:10117000e90f5200f3ff3600e04f560002003a003c
:101180008d0f5000efff3200e04f54001c00320082
:1011900054062000840f5000030032005404200045
:1011a000840f500016003a00005f78000844e90000
:1011b000805c80001b080700e04f54000a003200ea
:1011c000d4022000840f5000030032000482e900a2
:1011d000840f500004003a000844e900005f7800e2
:1011e000805c80000f080700e04f540004003200cc
:1011f00004fd2f0000024200e90f5200f6ff360006
:10120000004feb00e10f400002003200815c8000e3
:10121000c9080700a4fa2f000f024200840f5700ec
:1012200002003a0009447800940037009ff29700ca
:10123000e0cf5200f9003a008944e8000a85e9004d
:101240000ff29700e24f5200090032001a047800b2
:101250008000eb00a0fa2f000f004000cf0707002e
:101260006f0a0700009cbe000294be00eb0037002e
:101270001a0478008000eb00a0fa2f000f00400055
:10128000cf060700008cbe00e4003700e24f560096
:1012900055ff32008cc0b30056ff37009df79f000a
:1012a0008cf79f008002eb00e5b79f0004c1b300fc
:1012b000530037009df79f00fbfe07009ff2970049
:1012c000e0cf520001003a004a077800805c8000bd
:1012d000d407070000067800e10f460011003a002d
:1012e000094478000c007800c90037001b02fb009d
:1012f000840f560002003a008b05e800100037000a
:101300001ff29700e04f520001003a000c5f780096
:101310000844e9000a003200805c8000c107070031
:10132000000678000c02e800e10f520004003600cd
:101330000c007800a7fc0700e00f5000ebff320024
:101340009ff29700e0cf5200b4003a008944e800d1
:10135000054f7800b10037009df79f000d427800df
:10136000e04f520002003a008944e8004a07780042
:10137000805c8000ab070700e10f400002003a00ec
:1013800009447800a20037009ff29700e0cf520096
:1013900001003a00005f78000844e9004240a900db
:1013a000f3ff3c009d0037000484fb0004fd2f0088
:1013b00008024200e90f520009003e007a070700c8
:1013c0000b0278000044780084057800b402fb002a
:1013d0000503b100e98f5200fbff360005ff37001f
:1013e000805c80008f070700800f540082003a0065
:1013f0008a0037009df79f008cf79f00a4c0b300c0
:10140000b4ef9f000400370085c0b3009df79f0034
:101410008cf79f00b5ef9f00a3fe0700805c800063
:10142000800707000042eb00f0b79f00a4ef9f0089
:1014300080027800d4022000848f520005003a0018
:10144000805c800077070700f0b79f0014c0b300ee
:10145000a4ef9f006fb19700bfe897007fb097009f
:10146000a0fe0700e14f40000c003a00094478005c
:10147000815c80007fb097002f080700e04f540088
:101480006a003a00845c80003400900070006000c4
:10149000670032000080eb00650037000403200085
:1014a000ffb29700848f520015003a00805c8000e4
:1014b0005c07070084072000840f500004003a00f6
:1014c0006fb29700e00f5200070032000a003700a9
:1014d00084052000840f500007003a00efb2970007
:1014e000e08f520004003200805c80004d0707004e
:1014f000f0b79f0002003700815c80000e080700f3
:10150000bfea97000582fb0005002000b4b79f00ea
:10151000c5b79f006066b8003fb19700cfb1970094
:101520000c00be000844e900de0a07006fb1970016
:101530000006be00bfe897007fb0970069fe070075
:101540000080fb00010020000006460081864e005e
:10155000e04f540008003200805c80003107070033
:101560006fb19700f0b79f00bfe897005dfe0700de
:10157000e14f4000e8ff3a006fb19700bfe89700e5
:101580007fb0970057fe0700e14f400003003a008c
:10159000815c80007fb09700e70707002fea970083
:1015a000e04f52000200320060061600e0861e0086
:1015b0009ff29700e0cf520018003a008944e800fb
:1015c0000a85e9000ff29700e44f520003003a0049
:1015d0001a0278000c8abe00100037001a02780048
:1015e0000c0a78000d003700805c80000d070700b2
:1015f000800f56000900320009447800e10f4000d6
:1016000003003200815c8000cb0707000700370031
:10161000e04f540005003a00050037001b447800f5
:10162000e04f54005efe3a00094478000880fb0059
:101630004f0778004f06be004f05be004f04be00a6
:10164000af04b10000000600d4c6b3000800fa00e1
:10165000889fbe000084fb008a9fbe00844f50001c
:101660003400360049a020004b062000110009007c
:101670000b84d800720040004300dd00008044006d
:10168000810578006022b8000600200007fe2300d4
:10169000aa0020005001be004000be00fa09070069
:1016a0000002be00110009008a85d800800578007c
:1016b000e9854500c35ddd008b8544000203be0063
:1016c00084bf9f0095bf9f00a6bf9f00b7bf9f002c
:1016d0003b02be002b03be000fb897009fb89700d7
:1016e0002fb99700bfb99700e70907000002be00b5
:1016f000110009000a84d800010478004344dd0089
:10170000888444000203be0084bf9f0095bf9f00f1
:10171000a6bf9f00b7bf9f003902be002903be00cd
:101720000fb897009fb897002fb99700bfb99700df
:101730001d003700ea4f500013003600aa002000b9
:1017400049a02000110009000a84d8000105780092
:10175000690440004355dd004344dd000884440033
:101760008a8444006022b8000600200007fe23009f
:101770003800be002801be00c30907003902be00c0
:101780002903be000800370044a020004344dd00c8
:10179000080442006022b8000600200007fe230073
:1017a0003800be002801be00b70907004f05be0083
:1017b0004f04be000080fa0000000600d4c6b3004b
:1017c0000800fa00889fbe008a9fbe00e04f5000cc
:1017d00022003d000040ea000004fb00844f50005e
:1017e0000a00340044062000a9002000110009006e
:1017f0000404d8004aa02000110009008900d80084
:10180000e9004000c308dd0020003700ea4f500027
:101810000f003400a4002000110009000404d800c7
:1018200044a02000690040004300dd0000004200a9
:10183000430cdd00080242005001be004000be0023
:101840005403be004402be008f0907003700370072
:101850004344dd0044a02000310037000004fb00b9
:10186000844f50002300340044062000a9002000cb
:10187000110009000404d8004a9520001100090055
:101880008900d800e9004000c308dd008100450060
:101890008b0920008a8545003102be002103be006d
:1018a0003b00be002b01be00770907000002be000e
:1018b000110009000904d800010478004344dd0048
:1018c000080545000203be0084bf9f0095bf9f002e
:1018d000a6bf9f00b7bf9f003a02be002a03be000a
:1018e0000fb897009fb897002fb99700bfb997001e
:1018f000d5ff3700ea4f500007003400a400200055
:10190000110009000404d80044952000690040003b
:101910004300dd00c5ff37004344dd00449520004f
:10192000080442003800be002801be004f05be007a
:101930004f04be000080fa0000000600ef04b00073
:10194000889fbe008a9fbe008c9fbe000006780064
:101950008e1f78008006eb0091a79f00e2a79f00f2
:101960006000b8006011b800a0a79f00b1a79f0059
:10197000c2a79f00d3a79f00050537009fa097002f
:1019800054c2b3008100e80091a79f00844f50002b
:1019900006003a00810378000002eb0000c3b300a8
:1019a00001c2b300b2c2b3000e0037003c02900087
:1019b0000404b200040032001c027800004a7800df
:1019c000040ee800050037000000fb008c007800e2
:1019d00095060700e10f4000ed0432008d06e80097
:1019e000eb04370087027800d3c2b3003743780096
:1019f000834f53000900320005003c00814f530023
:101a000008003200824f53000c003a0007003700f4
:101a1000804f530009003a00060037000430a00050
:101a2000f0ff37000400a000eeff37000410a00014
:101a3000ecff37000420a000eaff3700e203620059
:101a4000010032000400a100e8036200010032003e
:101a50000420a1008603fb000703b100e98f5300b7
:101a60000d003e00050378000000eb00b602fb000d
:101a70006a00b9000503b1009603fb000080420034
:101a80000703b10086027800e98f5300f7ff3600a4
:101a9000b0af9f000a0037008003eb00b7af9f0094
:101aa000a7c2b300874f530005003a006fa097000c
:101ab0008502e800c0007800e0a79f00b1af9f005a
:101ac000e6c2b300954f130017003a0004e0a000ef
:101ad00064435300d54f1300030032000503780020
:101ae0000000eb0009003700efa197008502e80035
:101af00043037800e3a79f00f6af9f00c0c6b30082
:101b00000d0037006a00b9000080430086027800ab
:101b1000b603fb000703b100e98f5300f9ff36005d
:101b2000f0af9f00f5ff37008003eb0004c0a0007a
:101b3000f7af9f00f1ff37003543780095a79f006e
:101b4000804f530016003200c5c6b300854f5300c6
:101b500009003c00e9c25200854f5300800032006a
:101b6000e3c24200854f530013003200e04f5300a0
:101b70008c0432009b00370055c7b300854f5300db
:101b80009d003200e3c24200854f53000d00320039
:101b9000e5c25200854f530092003a000c00370016
:101ba000f003620006012000010032000600280058
:101bb00004027300e0ff3700e6679f0004a0a00066
:101bc0008f003700e6679f000470a0008c0037008c
:101bd0006fa19700e6679f00c2027800e2a79f000e
:101be00005047800e08f520001003a0088b7200019
:101bf000080378008002eb00010037008502e8004e
:101c0000e6c37a00e0cf5300fcff3a008504780079
:101c1000ffa99700e08f510003003200898f510027
:101c200001003100830478000007eb003fab970010
:101c3000890f530001003600090753006802620053
:101c4000b4b79f002a003a0004c2b3001000370066
:101c5000bc0290000504b200040032009c0278002f
:101c6000844a7800050ee8000700370084bf9f0013
:101c70008c00780000022000eb0507000fba9700e7
:101c8000e10f4000010032008d06e8000e07e90078
:101c9000e00f5700eeff3a000087eb00140037001a
:101ca0003c0290000404b2000900320008027800ef
:101cb0001c037800b4427800054b780004047800d7
:101cc000060ee800e0cf520008003a000800370096
:101cd000080278008c0078003400fb0004047800cf
:101ce000d1050700e10f4000010032008d06e80039
:101cf000090278008404e900e00f5200e8ff3a008e
:101d0000bfb3970004c2b300e08f530011003a0044
:101d10001f043700bc0290000504b200040032002a
:101d20009c027800844a7800050ee800070037001e
:101d300084bf9f008c00780000022000ba050700d5
:101d40000fba9700e10f4000010032008d06e80055
:101d50000e07e900e00f5700eeff3a000c043700d1
:101d60006fa0970070036200c0027800e0a79f0098
:101d700005007800cf80de00010178008201780044
:101d8000b0b79f00c1b79f00d2b79f00e3b79f00d5
:101d90004800de00c80add0000807200e0679f0096
:101da000e00f530009003200e04f500007003200fe
:101db000e14f4000050032006fe39700f0679f009d
:101dc000866f9f002900200003003700efe3970093
:101dd00019002000f7679f0078fa2f000f044400d5
:101de0008bff3700e6679f0068fa2f000f0444005e
:101df0001900200086ff3700e6679f00040cb3003f
:101e0000b4b79f00047020003fb097000402600048
:101e1000420232000400210004026000020032008d
:101e200061002000f1af9f003fb197007002610098
:101e3000050032006fa097004003be004002be00c4
:101e4000e0a79f00060037006fa197004200be0088
:101e5000e2a79f00720707000002be000203be0057
:101e6000f4a79f0085af9f0096af9f00a7af9f008c
:101e70006022b8006033b8007fa097008fa8970059
:101e80001fa99700afa99700b7060700e00f500001
:101e90000c003d007fa097008fa897001fa9970016
:101ea000afa9970003f0a200f0a79f0081af9f00a9
:101eb00092af9f00a3af9f00bfb097003100b30067
:101ec000b1b79f000002eb007fa097008fa897009a
:101ed0001fa99700afa99700d4979f006022b80070
:101ee0006033b80004070700e00f500034003200f0
:101ef000a4fa2f000f0242007fa097008fa897003e
:101f00001fa99700afa99700c20707005f9097002d
:101f1000a40020000000e9006300b90011000900de
:101f20000400d800d0979f00e00f500002003d0051
:101f30000000e900d0979f005f9497000840ea00f6
:101f40001efe07007fa297008faa97001fab970085
:101f5000afab9700cc0707000002be000203be0033
:101f6000a4a79f00b5a79f00c6a79f00d7a79f0063
:101f70006022b8000600200007ff23007a06070051
:101f8000e00f500002003d000804e9000b0037009c
:101f90006022b80006002000470224002fa097000e
:101fa000bfa097004fa19700dfa19700730607001d
:101fb000e00f5000020035000804e800d8979f00a9
:101fc000ffaa9700f88f52000f003c0005407800f0
:101fd0009dfd07000002be000203be007fa0970027
:101fe0008fa897001fa99700afa99700e1050700e8
:101ff0000002be000203be00f4a79f0085af9f0051
:1020000096af9f00a7af9f005f949700e90f540021
:1020100015003c006022b8006033b8007fa0970034
:102020008fa897001fa99700afa99700b2060700d5
:10203000e00f5000320032007fa097008fa8970079
:102040001fa99700afa9970016070700e00f5000df
:10205000e08f5800e00f5900e08f590028003a0047
:10206000e10f5400260034000400200005002e007b
:10207000b6e02200170124002fa09700bfa0970010
:102080004fa19700dfa1970037060700e00f50002f
:1020900002003d0073045400010037007204540034
:1020a000d8979f002f689700c4fd07000002be006c
:1020b0000203be007fa097008fa897001fa997007a
:1020c000afa99700a4a79f00b5a79f00c6a79f0030
:1020d000d7a79f002e060700f20607000205be00e4
:1020e0000004be006000b8006011b800f0a79f00b7
:1020f00081af9f0092af9f00a3af9f0017003700f2
:102100007fa097008fa897001fa99700afa99700fd
:10211000e40607000205be000004be001207070027
:102120000002be000203be007fa097008fa89700a8
:102130001fa99700afa99700c80707000002be00bb
:102140000203be00f4a79f0085af9f0096af9f00db
:10215000a7af9f000002eb00d4979f00c1ab200007
:1021600010c0b300080037003102be003103be00ca
:102170000440e10005c8e10006d0e10007d8e10015
:10218000030039000040e800f44f5000f6ff3a0029
:10219000e0679f005f929700bfaa97007fab970010
:1021a000048252000000fb000602520000075200a9
:1021b000e00f5300010032000e07e900bfb39700a3
:1021c00063826300010032000e07e9003fb0970010
:1021d000640260003b00320062026000e1026000c5
:1021e000e00f5200110032003c0290000404b200e3
:1021f000080032001c037800b4c2b300e08f520024
:102200000100320004c2e800044b7800060ee8002a
:1022100015003700b0022000e08f520001003200ac
:102220000080e8008c0078000c003700e08f52003e
:10223000200032003c0290000404b200050032008d
:102240009c02780004c2b300844a7800050ee800be
:10225000050037008c00780000022000720407009f
:10226000e10f4000130032008d06e8001100370036
:102270003c0290000404b200040032001c0278000a
:10228000054a7800040ee80007003700f5b79f0004
:102290008c0078000003200063040700ffb2970061
:1022a000e10f4000010032008d06e8000e07e90052
:1022b0000100370005c3b300e00f5700ecff3c00fe
:1022c00065003700bfb097006882600015003a00d3
:1022d000110037003c0290000404b20004003200f8
:1022e0001c027800054a7800040ee8000700370059
:1022f000f5b79f008c007800000220004a04070018
:10230000ffb29700e10f4000010032008d06e800a7
:102310000e07e9000100370005c2b300e00f5700c7
:10232000ecff3c003fb1970062026100e1026100f6
:10233000e00f5200110032003c0290000404b20091
:10234000080032001c037800b4c2b300e08f5200d2
:102350000100320004c2e800044b7800060ee800d9
:102360003c003700b0022000e08f52000100320034
:102370000080e8008c00780033003700e08f5200c6
:10238000350032003c0290000404b2000400320028
:102390009c02780004c2b300844a78001800370019
:1023a0008c00780000022000270037003c029000db
:1023b0008502fb000404b2001300320044ab20008d
:1023c000c32add00850242009c0178005503be004f
:1023d0004502be00b3af9f000800be000a01be0068
:1023e000e1070700a4002000050020006033b800ca
:1023f000e407070006c3b300bfaa9700864a40005f
:10240000050ee8001300370047ab2000c32add00ab
:10241000858243000800be000a01be005503be00cd
:102420004502be00d0070700a400200005002000e0
:102430006033b800d30707008c0078000403200045
:102440000002420004007800f7030700e10f40009b
:10245000010032008d06e8006f6297008442e900b7
:10246000e5679f00e04f5200d0ff3a0011003700af
:102470003c0290000404b200040032001c02780008
:10248000084a7800040ee800050037008c00780048
:1024900000032000e4030700e10f400001003200c8
:1024a0008d06e8005f9297000402e900d4979f0030
:1024b0000100370008c3b3005f929700e00f52009d
:1024c000ebff3c007fa89700f20f500003003400a0
:1024d00024c1b300e4679f0002003700efd89700e3
:1024e000e1679f006f6297007fa997008402fb005d
:1024f00085025100b5af9f00e04f52000e00320040
:102500003c0290000404b200050032001c02780076
:10251000e5c2b300054a7800040ee8000500370064
:102520008c007800e0022000bf030700e10f4000ac
:10253000010032008d06e8006f6097009ffc0700e5
:102540000002be000203be007fa097008fa8970084
:102550001fa99700afa997004b060700d1050700f8
:10256000350037003c0290008502fb000404b200f5
:102570001300320044ab2000c32add008502420074
:102580009c0178005503be004502be00f3af9f00da
:102590000800be000a01be0073070700a400200067
:1025a000050020006033b80076070700ffaa9700f7
:1025b00006c3b300864a4000050ee800130037004a
:1025c00047ab2000c32add00858243000800be001f
:1025d0000a01be005503be004502be0062070700a7
:1025e000a4002000050020006033b8006507070044
:1025f0008c007800040320000002420004007800f0
:1026000089030700e10f4000010032008d06e80059
:102610006f60970041ab20000002fb004322dd0009
:10262000048240000800be000a01be005403be0040
:102630004402be00530707006f6297000205be0008
:102640000004be008442e900e5679f00e04f5200ad
:10265000c4ff3a0011003700bc0290000504b2002c
:10266000040032009c027800844a7800050ee800dd
:102670000700370084bf9f008c0078000003200013
:10268000690307000fba9700e10f40000100320014
:102690008d06e8008904e90006003700bfac97000a
:1026a000f0af9f0081b79f0092b79f00a3b79f0034
:1026b00004c3b300e08f5400e7ff3a00bfb09700b7
:1026c00068826000b2013200e00f5700b0013400b0
:1026d00004c2b300bc0290000504b2000400320042
:1026e0009c027800844a7800050ee8000700370055
:1026f00084bf9f008c007800000220004a0307007e
:102700000fba9700e10f4000010032008d06e8008b
:102710000e07e900efff3a009d0137003fb1970037
:10272000e00f510005003d00efa197004305be00fa
:102730004304be00e3a79f00150037003fb3970096
:10274000f00263000c0032006fa197004200be004f
:10275000a49f9f00809f9f00919f9f00b49f9f0018
:10276000e2a79f000f9c97009f9c97002f9d9700ca
:10277000bf9d9700060037006fa2970044047800c1
:10278000e4a79f00090020000a0020000b002000a1
:10279000ffaa9700e08f520009003a0016002000bf
:1027a000f6af9f00e00f5400e08f5c00e00f5d008b
:1027b000e08f5d00020032008003eb00f7af9f0066
:1027c0003fb0970004082000000cb200f0a79f0063
:1027d000840f500010003200040c2000840f5000c1
:1027e00021003a00c5ab200014c0b3003500be0084
:1027f0003501be000040e10001c8e10002d0e10067
:1028000003d8e100170039000442e800f44f5200f9
:10281000f6ff3a001300370014c0b3000001200097
:10282000010020006011b8000040e10001c8e10093
:1028300002d0e10003d8e1000a0039004500200081
:102840000000d0008180d2000281d2008381d200ba
:102850008502e900faff3a000442e800f04f520016
:10286000f1ff3a00e4679f006f639700ffab9700aa
:102870000602fb00870f520002003d00e7679f0041
:10288000040037007fa89700840f500001003d002e
:10289000f4af9f00bfa89700e08f50000500320002
:1028a0003fb1970063026100020032008100e9003d
:1028b000b1af9f0004002400bfb197000482610003
:1028c000090032003faa9700ffaa9700850f520027
:1028d0000300340005025200b4af9f00020037002d
:1028e0000003eb00b6af9f00ef6397000007eb001b
:1028f0000702fb003fa89700840f5000010034003e
:1029000004075000bfb09700648260003a003200b4
:10291000e282600061826000e08f520011003200ac
:10292000bc0290000504b200080032009c0278004e
:10293000b6c2b300e00f52000100320006c3e80047
:10294000864a7800050ee80015003700b002200026
:10295000e00f5200010032000080e8008c00780097
:102960000c003700e00f52000e0032003c029000d5
:102970000404b200050032001c02780005c2b30056
:10298000054a7800040ee800050037008c00780046
:1029900000022000a4020700e10f40000100320005
:1029a0008d06e800e00f57005000320004c3b3006a
:1029b000bc0290000504b200040032009c027800c2
:1029c000844a7800050ee8000700370084bf9f00a6
:1029d0008c00780000032000930207000fba9700d4
:1029e000e10f4000010032008d06e8000e07e9000b
:1029f000efff3a003d003700e00f570015003200ae
:102a00003fb197006802610012003a0004c2b300af
:102a1000bc0290000504b200040032009c02780061
:102a2000844a7800050ee8000700370084bf9f0045
:102a30008c007800000220007b0207000fba97008c
:102a4000e10f4000010032008d06e8000e07e900aa
:102a5000efff3a00bfb19700e2826100618261003e
:102a6000e08f520011003200bc0290000504b20059
:102a7000080032009c027800b6c2b300e00f52009a
:102a80000100320006c3e800864a7800050ee8001f
:102a900015003700b0022000e00f520001003200a4
:102aa0000080e8008c0078000c003700e00f520036
:102ab0000e0032003c0290000404b2000500320017
:102ac0001c02780005c2b300054a7800040ee80035
:102ad000050037008c007800000220005202070039
:102ae000e10f4000010032008d06e8007faa970048
:102af0000e0078008402e900bfb39700422bdd008e
:102b000044ab2000c32add00f0836300048242004e
:102b1000c69f9f00f7979f00e0979f0004077800eb
:102b2000b8af9f00c9af9f00daaf9f00ebaf9f0027
:102b30007c003700ffaa9700040820008502e90006
:102b40007fa39700f5af9f00840f53005000320021
:102b5000040c2000840f53005d003a00bfb39700bf
:102b6000e08f53001a003d003e04be002e05be005b
:102b70003fa89700cfa897005fa99700efa99700fb
:102b80000802be000a03be00f70507000802be00e7
:102b90000a03be00e0679f000000fb00cf80de005c
:102ba0000101780082017800580607003faa9700cb
:102bb000cfaa97005fab9700efab970000025200df
:102bc00081825a0002035b0083835b001f00370091
:102bd000ff929700e08f5200210032003faa970039
:102be000cfaa97003e04be002e05be000400be0022
:102bf00084bf9f00f5b79f000801be0019050700bc
:102c00000801be00e0679f000000fb00cf80de00ef
:102c1000240507000fba9700ffb297000003520087
:102c200081835a000000eb00d69f9f00e79f9f0022
:102c300080a79f008003eb00f79f9f005f9a97009b
:102c4000ef9a97007f9b97008fa39700b4af9f00e8
:102c5000c5af9f00d6af9f00e7af9f0008003700c9
:102c60001e027800bfaa9700110009008482d800d4
:102c7000a4002000110009000480d800e1679f0033
:102c80006f6397000643b000e6679f0010003700af
:102c90003faa9700cfaa97005fab9700efab9700d2
:102ca0004f989700f1b720000000e90005003300bd
:102cb0008703d1000683d3008582d3000482d3002a
:102cc000f9ff37006f02620061427a00e4679f00fb
:102cd0003c0290000404b200070032009c0278001d
:102ce0006f629700844a7800050ee800e04f5200ba
:102cf00007003a00070037006f6197008c007800ea
:102d00000200fb00c8010700e10f40000100320093
:102d10008d06e800cf999700e4815100c39f9f0082
:102d2000680757007faa9700e00f520081ff3a0022
:102d3000bfb297006f97970068826200140032005c
:102d4000e00f57001200340004c2b300bc02900030
:102d50000504b200040032009c027800844a780026
:102d6000050ee8000700370084bf9f008c00780044
:102d700000022000ac0107000fba9700e10f4000ed
:102d8000010032008d06e8000e07e900efff3a006f
:102d90001fa3970016407800e0679f00e04f5000a7
:102da000f6fa3a004f0778000d0078004f06be0093
:102db0004f05be004f04be00ef04b1000000060046
:102dc000ea874700889fbe008a9fbe008105780081
:102dd0008c9fbe008e1f7800e08f550001003200ee
:102de000800d7800000578008a04780009057800d5
:102df0003a06fb000c007800f6f50700e00f5000e3
:102e0000f9ff3a00d4022000840f560003003a0074
:102e10008a04780018c0b300050037000044780029
:102e2000b4022000840f560001003a008a047800a2
:102e30008006eb006000b8000d0578000ecdb300f1
:102e4000e4c2b300010037008904e8008902780079
:102e50007003640004003a00994f120002003a0027
:102e60000844a000f8ff3700194678000c03fb0067
:102e70000603b100e90f530017003e000814a0003c
:102e80008802fb00e98f56000f003200f0826200da
:102e9000010032000a05e900e4b79f00a20020000b
:102ea000030020008d06e8007e0407000e43460064
:102eb0006fb297000683fb0007002000000043006c
:102ec00081804b00e0ff3700f0826200deff3a00b5
:102ed0000a05e800dcff370054c6b300844f5600f3
:102ee000040032008006eb0054c4b300844f560047
:102ef0002e003a0059427800d5c2b300854f5200e7
:102f000002003a000834a00003003700b5c2b30045
:102f1000854f520001003a008904e80007c3b3005e
:102f2000890278008504780004c3b300394378002f
:102f3000874f5300faff32008603fb008006eb0048
:102f40000703b100e98f530015003e0089027800a5
:102f500084465300154378008d86fb008603fb00f2
:102f60000703b100e98f53000d003e006a69b90004
:102f700084465300554378008d86fb008603fb0092
:102f8000828646000703b100e98f530004003e002b
:102f90006a69b900844653008d86fb00828646002c
:102fa00068026400010032008d06ea00e08f5500df
:102fb000030032006202640001003200850d7800d7
:102fc0009ff607006011b8000002be000003be00bb
:102fd000e4b79f00d5b79f00f4b79f0087bf9f005d
:102fe00095f607006fb2970000017800dfb29700f6
:102ff0006000b8007fb397008fbb9700e00f5100cf
:10300000600032000a85460032f82f00820f55001a
:1030100003003d0024022000945c88005900370022
:1030200000082000800f5500070034002402200013
:1030300061046400945c88004d00320000002000b0
:1030400001f82f004f003700e00f55001f003d0032
:103050000a05ea00060037000400be00922f200097
:10306000530125006a05550031f607000002be0035
:10307000e90f5500f8ff3c00060037000400be00d1
:1030800002002000031224000a05e90028f60700c8
:103090000002be00e00f5500f8ff3a000403be0036
:1030a000020020000308200087bf9f000400be002c
:1030b000f4b79f0060f607007fb397008fbb9700bf
:1030c000e00f500025003d001f003700e00f5500c5
:1030d00007003a00210037000400be00922f2000b4
:1030e000530125006a05550096f607000002be0050
:1030f000e94f5500f8ff3e00060037000400be000f
:1031000002002000031224000a05e9008df60700e2
:103110000002be00e00f5500f8ff3a000403be00b5
:10312000f2ff2f00f3f7270087bf9f000400be00c7
:10313000f4b79f00d90207007fb397008fbb9700b9
:10314000e00f500005003400610464000b00320001
:1031500000002000010828000a0037006104640014
:103160000100320007f0a2000600be000500370093
:103170000000200001f827000200370000002000b6
:10318000010820004f0778004f06be004f05be0023
:103190004f04be00af00b1000000060008ff37007a
:1031a0008000eb0006ff370006c2b3000002780083
:1031b00004007800b042780086cf5200fbff320056
:1031c000e9cf5200f9ff3200d6c2b30086cf5200d9
:1031d00003003a000002780016c0b3000500370073
:1031e0000043eb00b7c2b30087cf520001003a00a2
:1031f000000278000000eb00020037006a00b9000e
:1032000000804200b402fb000503b100e98f5200c8
:10321000faff3600e04f5300010032000000ea00e0
:1032200000000600881f7800000478003802900033
:10323000f1026200e18f520006003a008402780039
:103240000520b2000800320098029000e08f520082
:1032500005003200380290000080eb000440a0001e
:1032600034049800200037000490a1003404980032
:1032700018029000e00f5200070034000402e90039
:10328000140498001802780094427800040ce800b6
:103290000580fb0005003700380290000404b200ee
:1032a000ecff3a0008007800110007003802900097
:1032b0000408b2000c003a00fa0f500008003a006f
:1032c00028029000e00f5200e2ff32001802900046
:1032d000180ce9000402e80014049800ddff370030
:1032e000ed0f5000e2ff32004f04780000000600ae
:1032f0000200fa00889fbe00000478000002eb0084
:103300008a9fbe00140498000080eb0038029000f1
:10331000610262004000320064b920008042eb008c
:1033200094cf12000f0032008bb720002a1020002b
:10333000c9fd2f008b844400390290002410b20094
:103340008a0f520002003a00090078009900070035
:10335000ec8444008b8f5400f7ff3a0064b92000de
:10336000004aeb0058019000e00f51000e003a00b7
:1033700012049800ea8057001200200048009000d4
:10338000a9f40700e10f500003003a006ff2970024
:103390000480fb0020003700380290000440a000a9
:1033a0003404980013003700a800900048009000f3
:1033b0009df4070010049800e00f50000300320055
:1033c000e10f40000d003a00030037003802900082
:1033d0000440a00002003700380290000403b3004c
:1033e00034049800a80290000002eb00050c78005d
:1033f000140498000080eb000700370028029000ba
:103400000000e900040c7800100498009442780051
:10341000040ce8000580fb004f05be004f04be0011
:103420000080fa0000000600889fbe0001047800ba
:103430008084eb0038029000e20262003b00320020
:1034400004037800980290000620b20002003a00bf
:10345000e08f520035003a000490a000800478000c
:1034600034049800f90fb200e08f520002003a00d5
:10347000a8029000050c7800ea8f540005003a007d
:103480000408b20003003a0088007800d000200051
:10349000e5ff070018029000d8029000850f520047
:1034a0000b0032000402e80015c0b30014049800b9
:1034b00018027800094a7800040ce80064b920007a
:1034c000054a7800ea8f540018003a0005003700da
:1034d00009407800880078006000070080047800c8
:1034e00012003700380290000410b2000f003200c2
:1034f00018019000a8009000480090007ef407009a
:1035000018029000840f500004003200380290002e
:103510000403b300340498008084eb000002eb0045
:103520001404980028029000040c78000900780028
:103530004f04be0000000600e10f40001c003200f6
:10354000310290001420b200e10f520015003a0041
:1035500021039000e00f530012003200110290008e
:10356000d1029000850f52001000320091027800c5
:10357000868f520002003a008508e80002003700fa
:103580000402e800940098009102e90031029000e2
:10359000850878000404b20005003a00804a7800eb
:1035a000000006000080eb00000006000080eb0039
:1035b00000000600881f78000004780038009000a2
:1035c000000278001420b200e10f520005003a001a
:1035d0000002eb001404980028029000040c78000c
:1035e0001900370080027800242020002520b20036
:1035f0000000eb00848f520016003a00a8009000f3
:10360000808f50001300320018019000800f51008d
:10361000100032004800900037f4070018029000b4
:10362000840f500003003200380290000403b300fe
:1036300034049800380090000002eb001404980055
:1036400028029000040c78000002b2000100320051
:103650000080eb004f047800000006000200fa0032
:10366000889fbe0001047800a0ff9f0038029000f0
:10367000840278000504b200020032000000fb0062
:1036800035003700e202620005003a000403b3008f
:1036900015049800340498000080eb002e003700d9
:1036a000d8049000e08f540006003a001200200079
:1036b000e6805700480090000ff4070019049800b6
:1036c00023003700a8029000e08f520008003a0063
:1036d000a5b920000430a00025049800050c78004e
:1036e0003404980025002000550498001504980023
:1036f00018019000a800900048009000fef3070019
:10370000280290008082eb0015049800affa970021
:10371000054a7800040ce8002ffa9700ea4f52009f
:103720000b003a00380290000410b200080032008a
:1037300018019000a800900048009000eef30700e8
:103740000002eb00a802900014049800050c780019
:103750002ffa97000400fb004f04be000080fa001f
:103760000000060000c0da000000060000c0da0019
:10377000000006002800fa00889fbe008a9fbe0055
:103780008c9fbe0007067800878669000c003b000e
:10379000030478008704780008f0a10009f0a10074
:1037a000840f5000858f5800860f5900890f5c00e8
:1037b000030033000cf0a20001003a000cf0a1005d
:1037c000fe0007006400e1005f003200780147005e
:1037d0006408e100610032006c0147007485570005
:1037e0003200be001201be003a04be001a05be003f
:1037f0001e039000be0a90008503530006003d00a2
:103800000004fd008104fd000205fd008305fd00ac
:103810008703ea00050378000df8a30004003200d6
:1038200060041400e0841c0060051d00e0851d009c
:103830006022b8007d0320000d38e1008006eb0017
:103840000b0039004433dd00f300b2008301730044
:1038500039003700848272000d027800e1066400ae
:103860008b85d1000a85d3008984d3000884d300d6
:103870008703e900f7ff3b0008004000898048000b
:103880000a0149008b81490004003b0060001000e0
:10389000e080180060011900e08119000358a300be
:1038a000090032008d827200848272006102600021
:1038b0008301d1000281d3008180d3000080d30036
:1038c0000603e8001b0037000348a30017003a0076
:1038d0000600e000170034000603e9000d00a30015
:1038e00000004800818048000201490083814900ae
:1038f0000348a3000f003a000600e000090034006e
:103900000603e900000040008180480002014900f0
:103910008381490001003a000003eb000348a30043
:10392000f5ff32006022b800020037008482720086
:10393000618266007500070003f0a1000cf0a7008b
:1039400003f0a000b1003700640147006408e10003
:1039500002003a000df8a300a9003a003200be00b0
:103960001201be00a90037008f1fd100100307000d
:103970008f87e9000000e00000000600809feb0058
:103980000b0307008f87e9000000e000000006003d
:103990002800fa00889fbe008a9fbe008c9fbe0050
:1039a00003866b00850007006400e10044003200dc
:1039b0006408e1004a0032006100e1004600320084
:1039c0006108e10049003200ec0647006000b800e1
:1039d0003d02be003d03be00f48657006011b800f2
:1039e0003d04be003d05be007d0320000b003700f6
:1039f0000000a0008d06e90013003200040242001e
:103a000085824a0006034b0087834b00000040007c
:103a10008180480002014900838149000802520068
:103a200089825a000a035b008b835b00f0ff3b0036
:103a30000802420089824a000a034b008b834b0034
:103a40008d06e900edff3a008482720086827200e2
:103a5000f707b200878272000100320015002000d3
:103a60001e0490003e0b900006035400e63fb00099
:103a70000368a300070032000000a7000500a000b3
:103a80008301d1000281d3008180d3000080d30064
:103a90000603e8008301d1000281d3008180d300b6
:103aa0000080d3000002eb000482d2001700070060
:103ab00003f0a1000cf0a70003f0a00053003700b2
:103ac000640247006408e1004d0032003400be008b
:103ad0003401be00f6ff37006108e1004800320003
:103ae0006011b8006000b800f1ff370003ff270045
:103af00002002000fbff3700801feb00ac02070034
:103b00008f87e9000000e000000006001800200098
:103b100057002000080453000d003d00060020005f
:103b200097fc2f000740e1001e00340084827200e1
:103b3000610260008301d1000281d3008180d30043
:103b40000080d3000804e800f8ff3a004700200096
:103b50006104600005047400040464000d00320078
:103b600061004000e080480060014900e0814900b8
:103b700003b8a500070032000603e8006538e1003d
:103b800004003a008301d1000281d3008180d30078
:103b90000080d300f87f20000830e10003003500ea
:103ba000080378006000b8006011b8004433dd00fd
:103bb000f300b200830173000000060068044700b0
:103bc0000294be000094be00fc0447008694be0030
:103bd0008494be0009007800be0207000800780047
:103be000bc02070099007800814f70000b003b0079
:103bf0000800be00970207004f00b1000300370025
:103c0000f3ff2700f2ff2f006110b9004f06be003e
:103c10004f05be004f04be000080fa000000060001
:103c20008103780055f407000001be006000b80071
:103c30000478a30013003a006220e10015003e0062
:103c40000d0039008301d1000281d3008180d300af
:103c50008301d1000281d3008180d3008301d10090
:103c60000281d3008180d3000538b000c42add0072
:103c7000f300b2008381720007f0a70003f0a000f8
:103c800000000600f3ff2700f2ff2f006110b900cb
:103c9000fbff370003ff2700f7ff3700f4ff2f007b
:103ca000dcf337001400fa00889fbe008a9fbe0034
:103cb0008c9fbe000004be000205be0068004700e5
:103cc0000a90be000890be00820207000070a700a4
:103cd0000bf0a1000bf8a30020003a009e09900011
:103ce0000e099000fe0090006e0090009e02900071
:103cf0003443200084825200c4ff32000a003c009a
:103d0000b4fc2f000428e100140034008301d1002a
:103d10000281d3008180d3000080d3008502e800b7
:103d2000faff3a00b9ff3700b40020000428e10090
:103d300007003c000000400081804800020149006b
:103d4000838149008502e900faff3a00afff37009e
:103d50000300280002002000010037006011b800b5
:103d60006000b800a9ff3700889fbe000082700085
:103d700004027100048271002400320036432000e6
:103d8000c50020008383cf000a0039000541b1003f
:103d90008283cf00070039000541b1008183cf0045
:103da000040039000541b1008083cf0001003900d3
:103db0000541b10085c353006022b80012003200f3
:103dc0000a003b0084827200610260008301d1001e
:103dd0000281d3008180d3000080d3000603e80075
:103de0008743e800f7ff3a00070037000000400073
:103df0008180480002014900838149000603e900ef
:103e00008743e900f9ff3a0040ff07004f04be0076
:103e1000000006001400fa00889fbe008a9fbe00c2
:103e20008c9fbe00040678000004be000205be00a0
:103e3000680047000a90be000890be0025020700f7
:103e40006200e1000800be000a01be00040020007c
:103e50000b003a001e029000e43fb1006e0090009b
:103e6000fe0090000e0990009e099000f300b20041
:103e700005fe2300858171000bf0a70003f0a00070
:103e8000040e780061ff37002800fa00889fbe000a
:103e90008a9fbe008c9fbe0003866b0047ff070011
:103ea0000028a30064003a000128a30067003a003c
:103eb0000008a30062003a000108a30065003a0070
:103ec0001e009000be08900081064000ed3fb1004a
:103ed000f4805700ee019000111ab8008e0990008e
:103ee000311bb8009e099000311cb800511db8006c
:103ef000f485570046000700fe0190003a000700d5
:103f00008b85e8003e0007008e0990004000070006
:103f1000ee019000340007008b85e80038000700b0
:103f20008e099000400007009e0990001b18b80001
:103f3000890440000a854800fe0190003400070013
:103f40008b85e80038000700ee0190003000070084
:103f50008e0990001b18b800890440000a854800ab
:103f60000a98a30008003a000402420085824a0031
:103f700006034b0087834b0008044c0089844c00e7
:103f80000a054d008d06e9008482720085027300e7
:103f90004c3add008502720001003200150020005d
:103fa000443ade001400b2004538de00cb45dd00a7
:103fb0000b007000c540de00cb4ddd008b80700033
:103fc0004549de00cb55dd000b017100c551de0017
:103fd0000d037800cdfe070003f0a1000cf0a70050
:103fe00003f0a00009ff37001b18b800850240004d
:103ff00006834800e0834b0060044c000700370054
:104000001b18b8000603400087834800faff3700fa
:104010001b18b8008703400008844800e0844c0067
:1040200060054d00000006001b18b80008044000a1
:1040300089844800faff37000108a300f0fe3a0027
:104040005800be005801be00e3ff37000008a3007f
:10405000ebfe3a0009047800f9ff370007f0a200f0
:10406000c4fd37006022b800060220000000d00026
:104070008180d2000482d2008582d2000000a0009c
:104080000202520083825a00030031000202420001
:1040900083824a000000a1000603e900f3ff3a0012
:1040a00000000600020ab900001bb9000200b800b7
:1040b000810042008100430000000600889fbe008e
:1040c0008a9fbe003004be002005be0004044400e8
:1040d00085844c0006054d0087854d000898be007c
:1040e0000a90be000440e10005c8e10006d0e100ee
:1040f00007d8e10002003100680040001008e80025
:104100004f05be004f04be00000006001000fa007c
:10411000889fbe008a9fbe00110020000605be00d9
:104120000404be003002be002003be00c4b79f00de
:10413000d5b79f00e6b79f00f7b79f00080252006f
:1041400089825a000a035b008b835b0084bf9f0057
:1041500095bf9f00a6bf9f00b7bf9f000498be00f9
:104160000698be004fb29700dfb297006fb397007a
:10417000ffb397000820e10009a8e1000ab0e100c0
:104180000bb8e100010039008000eb004f05be00d4
:10419000108810004f04be000080fa0000000600e6
:1041a0001400fa00889fbe008a9fbe008c9fbe004c
:1041b0000006eb003e000700ccb79f00bcb79f0095
:1041c000acb79f009cb79f008cb79f000605be0050
:1041d0000404be000d0420004fb39700bfb2970047
:1041e000860343002fb29700e00f530004003d0008
:1041f0003d0007000f004000b0ff0700030037003c
:10420000390007000f004000c0ff0700cfb2970041
:1042100095bf9f00e08f5200090035002b0007007a
:1042200014002000050020006033b8000000720078
:104230008180720002017300838173001c000700fb
:104240000c06e8008d0f5600e3ff3a001fba9700f6
:10425000e00f520005003d000802be000a03be0048
:1042600000fe2f000f00400094ff07004faa9700a8
:10427000e00f520008003a000fb497009fb4970077
:104280002fb59700bfb59700d8b79f00e9b79f003b
:10429000fab79f008bbf9f000c0007004f06be00bf
:1042a0004f05be004f04be000080fa00000006006b
:1042b000010007000000060090b79f00a1b79f0013
:1042c000b2b79f00c3b79f000000060001000700bf
:1042d000000006001fb09700afb097003fb19700f5
:1042e000cfb19700000006004f2bde00f9ff07005a
:1042f00086837300858242004f23de00a7b79f00ac
:10430000868272000402420095b79f00ffaa9700c0
:104310004f2bde00858242000602720084b79f00a8
:104320006faa97004f23de000402420086827200cb
:10433000f5af9f004f18de0000027200e5ff070096
:10434000e4af9f0000004000818048000201490066
:10435000838149000802be000a03be00d6ff0700a1
:1043600000fe2f0000000600881f780018002000c3
:10437000881f78008aff07008f87e9004f047800c4
:1043800000000600801feb0085ff07008f87e90013
:1043900000000600889fbe008a9fbe00e00f50000c
:1043a000e08f5800e00f5900e08f59000c003d00ed
:1043b0006044b8006055b8000000540081805c0083
:1043c00002015d0083815d001800200015000700d8
:1043d00008003d00180007000004eb00050037004e
:1043e0000004eb000f00070002003d001200070070
:1043f00018002000dcff0700e00f54000600320028
:104400006022b8006033b8000000520081805a007a
:1044100002015b0083815b004f05be004f04be00bc
:1044200000000600e00f5200e08f5a00e00f5b0032
:10443000e08f5b00000006006044b8006055b800e3
:104440000402540085825c0006035d0087835d00e2
:1044500000000600889fbe008a9fbe008c1f780067
:10446000e00f5000e08f5800e00f5900e08f590036
:104470000d003d006044b8006055b8001c002000ed
:104480000000540081805c0002015d0083815d00ba
:104490000820e10009a8e1000ab0e1000bb8e10042
:1044a0000d003d00080037000006eb00e00f520051
:1044b000e08f5a00e00f5b00e08f5b0006003d00dc
:1044c0006044b8006055b8000402540085825c0066
:1044d00006035d0087835d00aaff0700e00f56001a
:1044e000060032006022b8006033b80000005200bd
:1044f00081805a0002015b0083815b004f067800d7
:104500004f05be004f04be0000000600889fbe009d
:104510008a9fbe008c1f78000006eb00e00f500061
:10452000e08f5800e00f5900e08f590007003d0070
:104530006044b8006055b8001c0020000000540022
:1045400081805c0002015d0083815d00e00f52000c
:10455000e08f5a00e00f5b00e08f5b0007003d003a
:104560006044b8006055b8000c00a200040254007a
:1045700085825c0006035d0087835d007c00070088
:10458000e00f5600060032006022b8006033b80029
:104590000000520081805a0002015b0083815b00b1
:1045a0004f0678004f05be004f04be000000060015
:1045b000889fbe008a9fbe008c9fbe000404be0080
:1045c0000605be00809fbe00829fbe002f00070030
:1045d000040678000800be000a01be002b00070098
:1045e000840678004f03be004f02be008d4f760058
:1045f0007fb0970013003300f0ff2f008b8f6b000c
:1046000006003b000d0666000c00a7000a003700fc
:1046100007f0a600100020000a003700880f5200a3
:10462000898f5a008a0f5b008b8f5b000300390073
:104630001000200001003e000000200007f0a7004d
:104640000000ea004f06be004f05be004f04be004a
:1046500000000600e48240001078a300070032004a
:10466000640240001178a3003400be001401be00b3
:10467000040032000330a700000006003500be0031
:104680001501be000330a0000000060005ff270052
:1046900005826100070032000428e10001003200b9
:1046a000240005000600070001003a004400050050
:1046b0000408050002000700f9ff3a001400050095
:1046c0006f826100810270008502710085027200b4
:1046d00000000600800078005002be005003be00bb
:1046e0004439de00f700b200f37f200003016100cf
:1046f000090032000218e10016003a00850172003c
:1047000083017300838173000008200015003a00c4
:104710004000200013003700850172008301730000
:104720008381730005003a0004a8be0006a8be00fd
:10473000100020000b0037000201e90004024200d3
:1047400085824a0006034b0087834b000748a3007d
:10475000f9ff32000740a00004a8be0006a8be0072
:1047600020002000800098009200980000000600c1
:10477000889fbe008a9fbe008c9fbe000404b800c4
:104780000506b8008904460060854e000606b8009c
:104790000a054600e0854e000706b8008b05460076
:1047a000040eb800890446000a854e00e0854d00dd
:1047b000050eb8000a0546008b854e00060eb800af
:1047c0008b0546000416b8000a0546008b854e008e
:1047d0000516b8008b054600041eb8008b05460080
:1047e0000800be000a01be004f06be004f05be0015
:0847f0004f04be0000000600aa
:020000040000fa
:1047f80000000000fa43000025300000362e0000bb
:1048080032660000002500006600000053310000f9
:104818002c31000000530000312c00003000000053
:10482800533200002c31000000530000322c0000ed
:1048380030000000523100002c000000523200000d
:104848002c000000473100002c0000004732000017
:044858002c00000030
:020000040000fa
:10485c000400fa00008fbe001e02be00849fbe0042
:10486c0004402a00841f7800e092200067f10700c2
:10487c00e6875700e4922000040078000080fa00dc
:10488c00000006000600fa00200798008e1f780032
:10489c0074402a00841f78002e00900071f10700ec
:1048ac00e48757001e02be000400be000080fa0020
:1048bc00000006000000fa0004002000051224008d
:1048cc0084478800954788000400200005122400c6
:1048dc00a4478800b54788000080fa000000060055
:1048ec000400fa00008fbe000200200003782300b1
:1048fc001e00be0090f007000002be00c220200087
:10490c00330824000400be008bf007000002be0038
:10491c00c4478800d5478800c4478000d54780002d
:10492c00420a2700b33c24000400be0082f00700ba
:10493c000002be0002002000633624000400be000a
:10494c009aef07000002be00e4478800f547880094
:10495c00e4478000f54780000400be000080fa00a8
:10496c00000006000200fa00881f78000042eb00ed
:10497c00044f78009f08070001003700000000007a
:10498c00cf08070000427800044f78001e427800e0
:10499c00e04f5200f9ff3200e30807000002be00ae
:1049ac00544a8800654a8800544a8000654a800051
:1049bc000400be00caff07000002be004447880086
:1049cc00554788000042eb00044f78009b08070015
:1049dc000100370000000000b90807000042780011
:1049ec00044f78001e427800e04f5200f9ff32006d
:1049fc00cd0807000002be00544a8800654a8800b2
:104a0c00544a8000654a80000400be00b4ff0700d1
:104a1c000002be006447880075478800859420001a
:104a2c009542780014c3b30084cf520022003a00a0
:104a3c004647800057478000844780009547800098
:104a4c0018c0b3000401be000600be00f7ef07005b
:104a5c0000027800e00f5200010035000044eb002a
:104a6c00e04f540011003200464780005747800049
:104a7c00e41f8500f51f850018c0b3000401be00bb
:104a8c000600be00e9ef070000027800e00f5200bc
:104a9c00010035000044eb00e04f540003003200ed
:104aac00e422a800e442a80005003700e422a90093
:104abc00e442a90002003700e422a900e442a90064
:104acc00959420009542780014c3b30084cf520013
:104adc0022003a006647800077478000a447800098
:104aec00b547800018c0b3000401be000600be002c
:104afc00ceef070000027800e00f520001003500f5
:104b0c000044eb00e04f5400110032006647800077
:104b1c0077478000e41f8500f51f850018c0b3009f
:104b2c000401be000600be00c0ef070000027800c2
:104b3c00e00f5200010035000044eb00e04f540040
:104b4c0003003200e402a800e462a800050037006c
:104b5c00e402a900e462a90002003700e402a90003
:104b6c00e462a9000060fe004f0478000080fa00a7
:104b7c00000006000800fa00889fbe00300798006d
:104b8c000f0478000f027800840478009403070067
:104b9c0000027800040f78001e027800840278006e
:104bac008502e900150798000402e8000402e800f9
:104bbc000402d100840242000f027800858747006e
:104bcc000402e8000402d100040242002407980009
:104bdc003e029000e10f520004003a002e029000b9
:104bec009e00780004007800ce0207003e02900080
:104bfc00e20f520004003a002e0290009e00780052
:104c0c0004007800ca0407002e0290009442780039
:104c1c0074c4b30084cf5200e0003a0074c4b300f3
:104c2c000443780005902000864a7800c4c2b30083
:104c3c000443780015902000864a780014178000f1
:104c4c0062026200e00f52000500320014c3b30090
:104c5c000443780025902000864a78000400370031
:104c6c0004c3b3000443780025902000864a7800e2
:104c7c00c4c2b3000443780035902000864a780003
:104c8c001417800061026200e00f52000500320030
:104c9c0014c3b3000443780045902000864a780082
:104cac000400370004c3b30004437800459020008f
:104cbc00864a7800c4c2b3000443780055902000a3
:104ccc00864a78004447800055478000849fbe0088
:104cdc0004402a00841f7800809220004bf00700cb
:104cec00e687570084922000144278000443780031
:104cfc0065902000864a7800949220001442780037
:104d0c000443780075902000864a7800a492200015
:104d1c00144278000443780085902000864a78007d
:104d2c00b49220001442780004437800959020003f
:104d3c00864a7800c492200014427800044378001c
:104d4c00a5902000864a7800d49220001442780066
:104d5c0004437800b5902000864a7800c4c2b300a2
:104d6c0004437800c5902000864a78006447800090
:104d7c0075478000849fbe0004402a00841f780081
:104d8c008092200021f00700e687570084922000d3
:104d9c001442780004437800d5902000864a7800ad
:104dac00949220001442780004437800e59020008f
:104dbc00864a7800a49220001442780004437800bc
:104dcc00f5902000864a7800b492200014427800b6
:104ddc000443780005912000864a7800c492200094
:104dec00144278000443780015912000864a78001c
:104dfc00d4922000144278000443780025912000be
:104e0c00864a7800c4c2b300044378003591200070
:104e1c00864a78008447800095478000849fbe00b6
:104e2c0004402a00841f780080922000f7ef0700ce
:104e3c00e6875700849220001442780004437800df
:104e4c0045912000864a7800949220001442780004
:104e5c000443780055912000864a7800a4922000e3
:104e6c00144278000443780065912000864a78004b
:104e7c00b49220001442780004437800759120000d
:104e8c00864a7800c49220001442780004437800cb
:104e9c0085912000864a7800d49220001442780034
:104eac000443780095912000864a7800c4c2b30070
:104ebc0004437800a5912000864a7800a44780001e
:104ecc00b5478000849fbe0004402a00841f7800f0
:104edc0080922000cdef0700e687570084922000d7
:104eec001442780004437800b5912000864a78007b
:104efc00949220001442780004437800c59120005d
:104f0c00864a7800a492200014427800044378006a
:104f1c00d5912000864a7800b49220001442780083
:104f2c0004437800e5912000864a7800c492200062
:104f3c001442780004437800f5912000864a7800ea
:104f4c00d49220001442780004437800059220008b
:104f5c00864a7800c4c2b30004437800159220003e
:104f6c00864a780084942000144278000443780028
:104f7c0025922000864a78009494200014427800f0
:104f8c000443780035922000864a78000490200073
:104f9c000400780000030700250137002e02900062
:104fac009442780034c5b30084cf520011003a000b
:104fbc002e0290009442900014c3b30084cf520090
:104fcc000c003a00859420009542780014c3b3007d
:104fdc0084cf520004003a00a4402a000400780058
:104fec00ed02070003003700f4402a0004007800ab
:104ffc00e90207002e0290009442780034c5b300f9
:10500c0084cf520011003a002e029000944290007e
:10501c0024c3b30084cf52000c003a0095942000b6
:10502c009542780014c3b30084cf520004003a00b8
:10503c0044412a0004007800d7020700030037001f
:10504c0094412a0004007800d30207002e0290003d
:10505c009442780014c4b30084cf520016003a0076
:10506c002e029000a442900014c3b30084cf5200cf
:10507c0009003a0014c3b30004437800859420005f
:10508c00864a780014c3b30004437800959420003a
:10509c00864a78000800370004c3b3000443780044
:1050ac0085942000864a780004c3b300044378003a
:1050bc0095942000864a78002e0290009442780045
:1050cc0094c4b30084cf520013003a002e02900017
:1050dc009442900014c3b30084cf52000e003a00e7
:1050ec002e029000b442900014c3b30084cf52003f
:1050fc0005003a0014c3b3000443780085942000e3
:10510c00864a78000400370004c3b30004437800d7
:10511c0085942000864a78002e02900094427800f4
:10512c0094c4b30084cf520013003a002e029000b6
:10513c009442900024c3b30084cf52000e003a0076
:10514c002e029000b442900014c3b30084cf5200de
:10515c0005003a0014c3b300044378009594200072
:10516c00864a78000400370004c3b3000443780077
:10517c0095942000864a78002e0290009442780084
:10518c0024c5b30084cf520010003a002e029000c8
:10519c009442900014c3b30084cf52000b003a0029
:1051ac0044478000554780000400be00a8fd07005e
:1051bc000002780084007800e0412a0001ef07002b
:1051cc000002780004007800730207002e029000a1
:1051dc009442780024c5b30084cf520010003a00ea
:1051ec002e0290009442900024c3b30084cf52004e
:1051fc000b003a0064478000754780000400be0035
:10520c0093fd0700000278008400780020422a00f9
:10521c00ecee070000027800040078005e02070044
:10522c002e0290009442780044c5b30084cf520003
:10523c0028003a002e0290009442900014c3b30050
:10524c0084cf520023003a002e029000344290008a
:10525c000443780085922000864a78002e02900044
:10526c00444290000443780095922000864a7800ce
:10527c002e0290005442900004437800a592200026
:10528c00864a78002e029000644290000443780015
:10529c00b5922000864a78002e029000744290004d
:1052ac0004437800c5922000864a78002e029000b4
:1052bc00044a900004437800d5922000864a780076
:1052cc00809220006ffd07000002be00844788001a
:1052dc00954788002e0290009442780044c5b30094
:1052ec0084cf520028003a002e0290009442900085
:1052fc0024c3b30084cf520023003a002e02900046
:10530c00344290000443780085922000864a78004d
:10531c002e029000444290000443780095922000a5
:10532c00864a78002e029000544290000443780084
:10533c00a5922000864a78002e02900064429000cc
:10534c0004437800b5922000864a78002e02900023
:10535c007442900004437800c5922000864a78007d
:10536c002e029000044a900004437800d59220004d
:10537c00864a78008092200042fd07000002be00a1
:10538c00a4478800b54788002e029000944278000c
:10539c0074c4b30084cf520010003a002e02900067
:1053ac009442900014c3b30084cf52000b003a0017
:1053bc0084478000954780000400be0024fd070050
:1053cc00000278008400780060422a007dee07001d
:1053dc000002780004007800ef0107002e02900014
:1053ec009442780074c4b30084cf520010003a0089
:1053fc002e0290009442900024c3b30084cf52003c
:10540c000b003a00a4478000b54780000400be00a2
:10541c000ffd07000002780084007800a0422a00eb
:10542c0068ee07000002780004007800da0107003b
:10543c0089077800880778004f04be000080fa00c6
:10544c00000006000000fa00de070700e90507006f
:10545c00fa05070017fd07000b070700ffff3700d1
:10546c000000fa0084802800041188000002eb0080
:10547c00141188000002eb00241188000002eb00dc
:10548c003411880024022000441188009560a80083
:10549c002342a80084892000a44488008489200029
:1054ac0094448800048c200084448800048c2000e0
:1054bc00744488009628a8009728a8009708a9008b
:1054cc009608a9000080fa00000006000000fa000f
:1054dc00e3ff07000080fa0000000600849fbe0076
:1054ec000200fa00b544800004202000048262000f
:1054fc00e00f5200020032009580a9002100370015
:10550c008580a9000002eb00040f7800150037001d
:10551c001e0fe800a4448000144278000482fb00b3
:10552c0024118800a44480000402e800a4448800ec
:10553c00a5448000048c2000848f520002003a00a5
:10554c0084892000a44488009708a900a544800001
:10555c0094448000848f520002003a009728a800df
:10556c00080037001e027800e00f520005003c00d6
:10557c00151180000420200004826200e00f52000c
:10558c00e3ff32000080fa004f02be00004006002c
:10559c003600f800809fbe00829fbe00849fbe0034
:1055ac00869fbe000200fa000002eb00040f780098
:1055bc001a0037001e0fe8003411800004427800f6
:1055cc0004437800d5882000864a78007444800013
:1055dc00d588200095427800054a780074448000f4
:1055ec000402e8007444880075448000848e200016
:1055fc00848f520002003a00048c2000744488000e
:10560c009628a9007544800084448000848f520041
:10561c0002003a009608a800070037001e02780026
:10562c00e00f520004003c00141180006102620083
:10563c00e00f5200dfff3a00d488200014427800bb
:10564c00ea4f520006003a0014c0b300044378003d
:10565c00c5882000864a78001000200045fd070010
:10566c008560a9000080fa004f03be004f02be0007
:10567c004f01be004f00be003600f900004006008e
:10568c00841f78000000fa0014118000620262008e
:10569c00e00f5200010032002222a9008c20a90048
:1056ac000080fa004f027800004006000200fa0069
:1056bc000042eb00044f780084448000144f7800c3
:1056cc00844480000402e8008444880085448000ff
:1056dc00848e2000848f520002003a00048c20003b
:1056ec00844488008544800074448000848f520078
:1056fc0001003a009628a8009608a9001e427800de
:10570c00044078000080fa00000006000000fa0057
:10571c00e6ff070000427800044078000080fa00a1
:10572c00000006000600fa00881f78001007980099
:10573c00210798000002eb00040f78000a003700e4
:10574c00b444800062026200e00f52000b003a0089
:10575c001e0290001e044200d4ff07000042780095
:10576c00044c78001e0fe8002e0290009e02780078
:10577c00848f5200f2ff3900010037000000000056
:10578c001e027800040078004f0478000080fa00b4
:10579c00000006000400fa00000f780011079800c2
:1057ac009e0090001e007800deff070000027800cb
:1057bc00040078000080fa00000006000200fa00e5
:1057cc00004f7800944480001e4a78009444800076
:1057dc000402e8009444880095448000048c200066
:1057ec00848f520002003a0084892000944488007f
:1057fc009728a900a544800094448000848f52000f
:10580c0001003a009708a800a504800004002100bc
:10581c0004826200e00f520001003a009580a8005b
:10582c000080fa00000006000200fa00004f780029
:10583c001e407800e1ff07000080fa00000006001f
:10584c000600fa0010079800210798000002eb00f0
:10585c00040f78000b003700b544800004102000c2
:10586c0004826200e00f52000b003a001e0290000e
:10587c001e024200144278001e0fe800044078001b
:10588c00ceff07002e0290009e027800848f5200fb
:10589c00f1ff390001003700000000001e02780003
:1058ac00040078000080fa00000006000400fa00f2
:1058bc00000f7800110798009e0090001e007800e1
:1058cc00dfff070000027800040078000080fa0077
:1058dc00000006000200fa000002eb00040f780042
:1058ec00b54480000410200004826200e00f5200d6
:1058fc00010032001e30a000b544800004202000be
:10590c0004826200e00f5200010032001e40a00031
:10591c00b444800061026200e00f520001003200ca
:10592c001e00a000b444800062026200e00f52002e
:10593c00020032001e20a000010037001e10a00043
:10594c001e027800040078000080fa0000000600b7
:10595c000000fa00dfff0700000278000400780066
:10596c000080fa00000006000200fa00000f780028
:10597c00844480009e024200848e2000848f52005a
:10598c0009003600844480009e024200848e200070
:10599c000402ea0084824200048c2000048242004b
:1059ac001442780003003700844480001e02420039
:1059bc0014427800044078000080fa0000000600d1
:1059cc000200fa00000f78001e007800e6ff0700c6
:1059dc0000427800044078000080fa0000000600c5
:1059ec000000fa00b444800061026200e00f520033
:1059fc000f003a008544800074448000848f52006c
:105a0c0005003600844480008402780074448000d1
:105a1c00048252000700370084448000840278001e
:105a2c0074448000048252008402b00001003700ec
:105a3c000002eb00040078000080fa000000060071
:105a4c000000fa00e6ff070000027800040078006e
:105a5c000080fa00000006000000fa00b544800047
:105a6c000410200004826200e00f52000f003a0084
:105a7c00a544800094448000848f520005003600b9
:105a8c00a444800084027800944480000482520074
:105a9c0007003700a44480008402780094448000fe
:105aac00048252008402b000010037000002eb00b7
